:020000040800F2
:1000000000000120E9060008390700083907000848
:100010003907000839070008390700080000000008
:100020000000000000000000000000003907000888
:1000300039070008000000003907000839070008E8
:100040003907000839070008390700083907000890
:100050003907000839070008390700083907000880
:100060003907000839070008390700083907000870
:100070003907000839070008390700083907000860
:100080003907000839070008390700080000000098
:100090000000000000000000000000003907000818
:1000A0003907000839070008390700083907000830
:1000B0003907000839070008390700083907000820
:1000C0003907000839070008390700083907000810
:1000D0003907000839070008390700080000000048
:1000E0003907000839070008390700080000000038
:1000F00000000000000000000000000039070008B8
:100100000000000039070008390700083907000817
:1001100000000000000000000000000000000000DF
:1001200039070008390700083907000839070008AF
:100130003907000800000000000000000000000077
:100140000000000000000000000000003907000867
:10015000390700083907000839070008390700087F
:1001600039070008390700080000000000000000FF
:10017000000000000000000000000000000000007F
:100180000000000039070008000000000000000027
:040190003907000823
:1001940010B5054C237833B9044B13B10448AFF3BD
:1001A40000800123237010BD4400002000000000E3
:1001B4008407000808B5034B1BB103490348AFF398
:1001C400008008BD000000004800002084070008EB
:1001D40080B483B000AF0346FB71084B1B68FA7907
:1001E400012101FA02F21146044A0B43136000BFD5
:1001F4000C37BD465DF8047B704700BF30380240C1
:1002040090B482B000AF0446084611461A4623460D
:10021400FB710346BB710B467B7113463B71FA7944
:10022400564913469B0013449B000B441B681968F2
:10023400BB795B00032202FA03F3DB431C46FA7921
:100244004E4813469B0013449B0003441B6801EA79
:1002540004021A60FA79494913469B0013449B002F
:100264000B441B6819687A79BB795B0002FA03F3C3
:100274001C46FA79414813469B0013449B000344EF
:100284001B6841EA04021A60FA793C4913469B0050
:1002940013449B000B4404331B681968BB79012287
:1002A40002FA03F3DB431C46FA79344813469B00F5
:1002B40013449B00034404331B6801EA04021A60DC
:1002C400FA792E4913469B0013449B000B440433D4
:1002D4001B6819683B7903F00102BB7902FA03F346
:1002E4001C46FA79254813469B0013449B0003449B
:1002F40004331B6841EA04021A60FA791F49134661
:100304009B0013449B000B4408331B681968BB799A
:100314005B00032202FA03F3DB431C46FA79174815
:1003240013469B0013449B00034408331B6801EAF3
:1003340004021A60FA79114913469B0013449B0086
:100344000B4408331B6819683B795B1003F0030204
:10035400BB795B0002FA03F31C46FA79074813469B
:100364009B0013449B00034408331B6841EA0402C6
:100374001A6000BF0837BD4690BC704700000020DB
:1003840090B484B000AF0346FB710B46BB711346B7
:100394007B71FA792C4913469B0013449B000B4450
:1003A4001B681B68BA795200032101FA02F21A4051
:1003B400BB795B0022FA03F3012B3DD17B79002B3F
:1003C4001BD0FA79204913469B0013449B000B442D
:1003D40010331B681968BB79012202FA03F31C4627
:1003E400FA79194813469B0013449B0003441033C5
:1003F4001B6841EA04021A601BE0FA7912491346A9
:100404009B0013449B000B4410331B681968BB7991
:10041400012202FA03F3DB431C46FA790A48134625
:100424009B0013449B00034410331B6801EA04023D
:100434001A600023FB7301E00123FB73FB7B184666
:100444001037BD4690BC70470000002080B485B0D2
:1004540000AF03460A46FB711346BB710023FB73CE
:10046400FA790C4913469B0013449B000B440C334C
:100474001B681B68BA79012101FA02F21A40BB79A0
:1004840022FA03F3FB73FB7B18461437BD465DF871
:10049400047B70470000002080B483B000AF0023C9
:1004A4007B6002E07B6801337B607B6847F22F52FC
:1004B4009342F7D900BF00BF0C37BD465DF8047BFB
:1004C400704780B582B000AF0023FB7108E0F97972
:1004D400002301220120FFF793FEFB790133FB7116
:1004E400FB79022BF3D90323BB7108E0B97902230A
:1004F40000220120FFF784FEBB790133BB71BB7975
:10050400062BF3D900BF00BF0837BD4680BD0000ED
:1005140080B582B000AF374B1B78012B65D1002327
:10052400FB715FE0FA79344BA3FB021359080B46C5
:100534005B000B44D31ADBB2002219460120FFF7FB
:100544001FFFFB795A1C2D4B83FB0231D317C91AA9
:100554000B465B000B44D11ACBB201221946012091
:10056400FFF70EFFFB799A1C244B83FB0231D31750
:10057400C91A0B465B000B44D11ACBB201221946AF
:100584000120FFF7FDFE0323BB7125E0BB7919466B
:100594000120FFF75BFF0346002B1AD1FFF77CFF16
:1005A400BB7919460120FFF751FF0346002B10D1F8
:1005B400104B00221A70BB79DA1EF97910481346E1
:1005C4005B00134403440B441A780E4B1A7000F07A
:1005D4002BF8BB790133BB71BB79062BD6D9FB79D8
:1005E4000133FB71FB79022B9CD900BF0837BD4650
:1005F40080BD00BF28000020ABAAAAAA56555555B5
:100604002C0000206000002080B400AF044B0122C5
:100614001A70044B1B781846BD465DF8047B70477E
:10062400280000206000002080B582B000AFFFF7F2
:10063400EBFF0346BB71BB79092B1CD80023FB716C
:1006440015E0BB790E4AD35C1946FB79012202FA04
:1006540003F301EA0302FB7942FA03F3DAB2FB790A
:1006640019460020FFF78CFEFB790133FB71FB79FF
:10067400062BE6D900E000BF0837BD4680BD00BFA9
:100684003800002080B582B000AF0020FFF7A0FD45
:100694000120FFF79DFD0023FB7108E0F979002399
:1006A40001220020FFF7ACFDFB790133FB71FB79DC
:1006B400062BF3D9FFF705FFFFF72AFFFCE700003D
:1006C40080B400AF064BD3F88830054A43F4700376
:1006D400C2F8883000BFBD465DF8047B704700BF98
:1006E40000ED00E0DFF834D00D480E490E4A002337
:1006F40002E0D458C4500433C4188C42F9D30B4AD2
:100704000B4C002301E013600432A242FBD3FFF739
:10071400D7FF00F011F8FFF7B5FF70470000012084
:100724000000002044000020A4070008440000202A
:1007340064000020FEE7000070B50D4D0D4C641BF5
:10074400A4100026A64209D10B4D0C4C00F018F859
:10075400641BA4100026A64205D170BD55F8043BC5
:1007640098470136EEE755F8043B98470136F2E71F
:100774009C0700089C0700089C070008A0070008C5
:10078400F8B500BFF8BC08BC9E467047F8B500BF7A
:08079400F8BC08BC9E4670474A
:04079C00B901000897
:0407A00095010008B7
:1007A40000000240040002400C000240100002401D
:1007B4001400024000040240040402400C040240FD
:1007C400100402401404024001000000010203046A
:1007D4000506070809FF00FF3F065B4F666D7D07AE
:0407E4007F6F000023
:04000005080006E900
:00000001FF
