:020000040800F2
:1000000000000120F102000841030008410300083C
:1000100041030008410300084103000800000000FC
:100020000000000000000000000000004103000884
:1000300041030008000000004103000841030008DC
:100040004103000841030008410300084103000880
:100050004103000841030008410300084103000870
:100060004103000841030008410300084103000860
:100070004103000841030008410300084103000850
:10008000410300084103000841030008000000008C
:100090000000000000000000000000004103000814
:1000A0004103000841030008410300084103000820
:1000B0004103000841030008410300084103000810
:1000C0004103000841030008410300084103000800
:1000D000410300084103000841030008000000003C
:1000E000410300084103000841030008000000002C
:1000F00000000000000000000000000041030008B4
:10010000000000004103000841030008410300080B
:1001100000000000000000000000000000000000DF
:10012000410300084103000841030008410300089F
:100130004103000800000000000000000000000073
:100140000000000000000000000000004103000863
:10015000410300084103000841030008410300086F
:1001600041030008410300080000000000000000F7
:10017000000000000000000000000000000000007F
:100180000000000041030008000000000000000023
:04019000410300081F
:1001940010B5054C237833B9044B13B10448AFF3BD
:1001A40000800123237010BD000000200000000027
:1001B4008C03000808B5034B1BB103490348AFF394
:1001C400008008BD00000000040000208C0300082B
:1001D40080B483B000AF786000BF7B685A1E7A6039
:1001E400002BFAD100BF00BF0C37BD465DF8047B7D
:1001F4007047000080B483B000AF7860094B5B693E
:10020400084A23F0E0035361064B5B697A685201A4
:100214001146044A0B43536100BF0C37BD465DF8D9
:10022400047B70470004024080B582B000AF244BC9
:100234001B6B234A43F002031363224B1B68214ABE
:1002440043F4A84313601F4B1B681E4A23F0C003EA
:1002540013601C4BDB681B4A43F04003D360194B0B
:100264005B68184A23F0E0035360164B5B69154A38
:1002740043F0E003536100237B60124B1B69DB08EE
:1002840003F001033B604FF47A70FFF7A1FF3B6872
:10029400002BF2D00B4B1B69DB0803F00103002B8E
:1002A400EBD17B685A4203F0070302F0070258BF00
:1002B40053421846FFF79EFF7B6801337B60DCE7FF
:1002C400003802400004024080B400AF064BD3F86B
:1002D4008830054A43F47003C2F8883000BFBD4635
:1002E4005DF8047B704700BF00ED00E0DFF834D018
:1002F4000D480E490E4A002302E0D458C45004337A
:10030400C4188C42F9D30B4A0B4C002301E0136050
:100314000432A242FBD3FFF7D7FF00F011F8FFF736
:1003240083FF70470000012000000020000000202F
:10033400AC030008000000201C000020FEE70000C1
:1003440070B50D4D0D4C641BA4100026A64209D1B6
:100354000B4D0C4C00F018F8641BA4100026A642A8
:1003640005D170BD55F8043B98470136EEE755F8C2
:10037400043B98470136F2E7A4030008A4030008ED
:10038400A4030008A8030008F8B500BFF8BC08BC23
:100394009E467047F8B500BFF8BC08BC9E4670473F
:0403A400B901000893
:0403A80095010008B3
:04000005080002F1FC
:00000001FF
