:020000040800F2
:100000000000012051070008A1070008A10700080F
:10001000A1070008A1070008A107000800000000D0
:10002000000000000000000000000000A107000820
:10003000A107000800000000A1070008A1070008B0
:10004000A1070008A1070008A1070008A1070008F0
:10005000A1070008A1070008A1070008A1070008E0
:10006000A1070008A1070008A1070008A1070008D0
:10007000A1070008A1070008A1070008A1070008C0
:10008000A1070008A1070008A10700080000000060
:10009000000000000000000000000000A1070008B0
:1000A000A1070008A1070008A1070008A107000890
:1000B000A1070008A1070008A1070008A107000880
:1000C000A1070008A1070008A1070008A107000870
:1000D000A1070008A1070008A10700080000000010
:1000E000A1070008A1070008A10700080000000000
:1000F000000000000000000000000000A107000850
:1001000000000000A1070008A1070008A1070008DF
:1001100000000000000000000000000000000000DF
:10012000A1070008A1070008A1070008A10700080F
:10013000A10700080000000000000000000000000F
:10014000000000000000000000000000A1070008FF
:10015000A1070008A1070008A1070008A1070008DF
:10016000A1070008A107000800000000000000002F
:10017000000000000000000000000000000000007F
:1001800000000000A10700080000000000000000BF
:04019000A1070008BB
:1001940010B5054C237833B9044B13B10448AFF3BD
:1001A40000800123237010BD000000200000000027
:1001B400EC07000808B5034B1BB103490348AFF330
:1001C400008008BD0000000004000020EC070008C7
:1001D40080B483B000AF0346FB71FB79412B02D09E
:1001E400422B07D00DE00A4B1B6B094A43F0010375
:1001F400136306E0064B1B6B054A43F002031363CB
:1002040000BF00BF0C37BD465DF8047B704700BFDC
:100214000038024080B485B000AF0346B9607A600C
:10022400FB73FB7B412B02D0422B41D083E07B68E4
:10023400032B7DD801A252F823F000BF510200081D
:100244006B020008830200089B0200083D4B1B68F8
:10025400BA685200032101FA02F2D2431146394A24
:100264000B40136023E0374B1B68BA68520001212E
:1002740001FA02F21146334A0B43136017E0314B83
:100284001B68BA685200022101FA02F211462D4A93
:100294000B4313600BE02B4B1B68BA68520003211D
:1002A40001FA02F21146274A0B43136000BF3FE0F4
:1002B4007B68032B3ED801A252F823F0D102000838
:1002C400EB020008030300081B0300081E4B1B6815
:1002D400BA685200032101FA02F2D24311461A4AC3
:1002E4000B40136023E0184B1B68BA6852000121CD
:1002F40001FA02F21146144A0B43136017E0124B41
:100304001B68BA685200022101FA02F211460E4A31
:100314000B4313600BE00C4B1B68BA6852000321BB
:1003240001FA02F21146084A0B43136000BF01E0D0
:1003340000BF00E000BF00BF1437BD465DF8047B7A
:10034400704700BF000002400004024080B485B042
:1003540000AF0346B9607A60FB73FB7B412B02D08C
:10036400422B1FD03DE07B68002B03D07B68012B20
:100374000CD036E01E4B5B680121BA6801FA02F228
:10038400D24311461A4A0B4053600AE0184B5B688B
:100394000121BA6801FA02F21146154A0B4353606F
:1003A40000BF1EE07B68002B03D07B68012B0CD0C0
:1003B40016E0104B5B680121BA6801FA02F2D243DD
:1003C40011460C4A0B4053600AE00A4B5B6801215A
:1003D400BA6801FA02F21146064A0B43536000BFA1
:1003E40000BF00BF1437BD465DF8047B704700BFF3
:1003F400000002400004024080B485B000AF034610
:10040400B9607A60FB73FB7B412B02D0422B20D076
:100414003FE07B68012B03D07B68022B0CD038E0D3
:100424001F4BDB68BA685200012101FA02F211463F
:100434001B4A0B43D3600BE0194BDB68BA685200CC
:10044400022101FA02F21146154A0B43D36000BFA0
:100454001FE07B68012B03D07B68022B0CD017E0D4
:10046400104BDB68BA685200012101FA02F211460E
:100474000C4A0B43D3600BE00A4BDB68BA685200AA
:10048400022101FA02F21146064A0B43D36000BF6F
:1004940000BF00BF1437BD465DF8047B704700BF42
:1004A400000002400004024080B487B000AF03465D
:1004B400B9607A60FB73FB7B412B02D0422B29D0BD
:1004C40051E02C4B1A68BB685B0022FA03F303F07B
:1004D4000103002B1BD07B68002B0AD0254B5B69E2
:1004E4000121BA6801FA02F21146224A0B43536110
:1004F4000AE0204B5B690121BA6801FA02F2D24397
:1005040011461C4A0B4053610023FB752BE0012369
:10051400FB7528E0184B1A68BB685B0022FA03F3EA
:1005240003F00103002B1BD07B68002B0AD0124B75
:100534005B690121BA6801FA02F211460E4A0B43C3
:1005440053610AE00C4B5B690121BA6801FA02F2BB
:10055400D2431146084A0B4053610023FB7501E066
:100564000123FB7500BFFB7D18461C37BD465DF8B3
:10057400047B7047000002400004024080B485B050
:1005840000AF03463960FB71FB79412B02D0422B4B
:1005940016D02BE0194B1A683B685B0022FA03F370
:1005A40003F00103002B08D1144B1A693B6822FAAB
:1005B40003F303F00103FB6018E00023FB6015E084
:1005C4000F4B1A683B685B0022FA03F303F0010344
:1005D400002B08D10A4B1A693B6822FA03F303F093
:1005E4000103FB6001E00023FB6000BFFB681846C9
:1005F4001437BD465DF8047B704700BF000002401D
:100604000004024080B483B000AF786000BF7B6810
:100614005A1E7A60002BFAD100BF00BF0C37BD46CA
:100624005DF8047B704780B582B000AF786000222B
:1006340005214220FFF738FF002206214220FFF760
:1006440033FF002207214220FFF72EFF7B6803F0CF
:1006540001031A4605214220FFF726FF7B6803F0B9
:1006640002031A4606214220FFF71EFF7B6803F0AF
:1006740004031A4607214220FFF716FF00BF08377C
:10068400BD4680BD80B582B000AF4220FFF7A0FD1B
:10069400012205214220FFF7BDFD0122062142204F
:1006A400FFF7B8FD012207214220FFF7B3FD002226
:1006B40003214220FFF7AEFD012203214220FFF770
:1006C4009BFE002205214220FFF740FE0022062166
:1006D4004220FFF73BFE002207214220FFF736FEAF
:1006E40001237B6003214220FFF748FF38604FF469
:1006F4007A70FFF787FF3B68002BF3D00321422079
:10070400FFF73CFF0346002BECD17B685A4203F011
:10071400070302F0070258BF53421846FFF783FF4E
:100724007B6801337B60DDE780B400AF064BD3F810
:100734008830054A43F47003C2F8883000BFBD46D0
:100744005DF8047B704700BF00ED00E0DFF834D0B3
:100754000D480E490E4A002302E0D458C450043315
:10076400C4188C42F9D30B4A0B4C002301E01360EC
:100774000432A242FBD3FFF7D7FF00F011F8FFF7D2
:1007840081FF7047000001200000002000000020CD
:100794000C080008000000201C000020FEE70000F8
:1007A40070B50D4D0D4C641BA4100026A64209D152
:1007B4000B4D0C4C00F018F8641BA4100026A64244
:1007C40005D170BD55F8043B98470136EEE755F85E
:1007D400043B98470136F2E70408000804080008BF
:1007E4000408000808080008F8B500BFF8BC08BCF5
:1007F4009E467047F8B500BFF8BC08BC9E467047DB
:04080400B90100082E
:04080800950100084E
:040000050800075197
:00000001FF
