:020000040800F2
:100000000000012065110008B5110008B5110008B5
:10001000B5110008B5110008B51100080000000076
:10002000000000000000000000000000B511000802
:10003000B511000800000000B5110008B511000856
:10004000B5110008B5110008B5110008B511000878
:10005000B5110008B5110008B5110008B511000868
:10006000B5110008B5110008B5110008B511000858
:10007000B5110008B5110008B5110008B511000848
:10008000B5110008B5110008B51100080000000006
:10009000000000000000000000000000B511000892
:1000A000B5110008B5110008B5110008B511000818
:1000B000B5110008B5110008B5110008B511000808
:1000C000B5110008B5110008B5110008B5110008F8
:1000D000B5110008B5110008B511000800000000B6
:1000E000B5110008B5110008B511000800000000A6
:1000F000000000000000000000000000B511000832
:1001000000000000B5110008B5110008B511000885
:1001100000000000000000000000000000000000DF
:10012000650C0008B5110008B5110008B5110008EC
:10013000B5110008000000000000000000000000F1
:10014000000000000000000000000000B5110008E1
:10015000B5110008B5110008B5110008B511000867
:10016000B5110008B51100080000000000000000F3
:10017000000000000000000000000000000000007F
:1001800000000000B51100080000000000000000A1
:04019000B51100089D
:1001A00010B5054C237833B9044B13B10448AFF3B1
:1001B00000800123237010BD9C000020000000007F
:1001C000941A000808B5034B1BB103490348AFF369
:1001D000008008BD00000000A0000020941A000864
:1001E00001F0FF01102A2BDB10F0070F08D010F8E8
:1001F000013B013A8B422DD010F0070F42B3F6D1EC
:10020000F0B441EA012141EA014122F007047FF004
:1002100000070023F0E80256083C85EA010586EA5B
:10022000010685FA47F5A3FA87F586FA47F6A5FA97
:1002300087F68EB9EED1F0BC01F0FF0102F00702A3
:1002400032B110F8013B013A83EA010313B1F8D14E
:100250000020704701387047002D06BF354603382F
:10026000073815F0010F07D1013015F4807F02BF68
:10027000013015F4C03F0130F0BC0138704700BFB9
:1002800080B483B000AF0346FB71084B1B68FA795A
:100290001432012101FA02F21146044A0B431360A1
:1002A00000BF0C37BD465DF8047B70473038024014
:1002B00080B582B000AF3B600346FB710B46BB715B
:1002C00013467B71BA79FB791146184600F04AFA59
:1002D000FB79012B03D0022B00F0208135E2BA79A3
:1002E00013465B001344DB001A46884B134419681D
:1002F00097F828305B061846BA7913465B0013441A
:10030000DB001A46814B13441A4641EA000313608E
:10031000BA7913465B001344DB001A467B4B134447
:1003200019687B799B011846BA7913465B00134420
:10033000DB001A46754B13441A4641EA000313606A
:10034000BA7913465B001344DB001A46704B134422
:100350001A463B681360BA7913465B001344DB000E
:100360001A466C4B13441A463B691360BA7913461C
:100370005B001344DB001A46674B13441A467B6943
:100380001360BA7913465B001344DB001A465F4BD7
:10039000134419683B7EDB021846BA7913465B00AA
:1003A0001344DB001A46594B13441A4641EA000332
:1003B0001360BA7913465B001344DB001A46534BB3
:1003C000134419683B7E5B031846BA7913465B00F9
:1003D0001344DB001A464D4B13441A4641EA00030E
:1003E0001360BA7913465B001344DB001A46474B8F
:1003F0001344196897F820305B051846BA791346FC
:100400005B001344DB001A46404B13441A4641EA92
:1004100000031360BA7913465B001344DB001A46ED
:100420003A4B1344196897F82030DB051846BA791F
:1004300013465B001344DB001A46344B13441A4640
:1004400041EA00031360BA7913465B001344DB00F2
:100450001A462E4B134419683B7F5B021846BA7943
:1004600013465B001344DB001A46284B13441A461C
:1004700041EA00031360BA7913465B001344DB00C2
:100480001A46224B134419683B7F9B021846BA79DF
:1004900013465B001344DB001A461C4B13441A46F8
:1004A00041EA00031360BA7913465B001344DB0092
:1004B0001A46164B1344196897F824301B04184643
:1004C000BA7913465B001344DB001A460F4B134402
:1004D0001A4641EA00031360BA7913465B001344DD
:1004E000DB001A46094B1344196897F82C305B015E
:1004F0001846BA7913465B001344DB001A46034BD7
:1005000013441A4641EA000313601EE110600240E2
:10051000186002401C60024014600240BA79134621
:100520005B001344DB001A468A4B1344196897F8A2
:1005300028305B061846BA7913465B001344DB008B
:100540001A46844B13441A4641EA00031360BA79F1
:1005500013465B001344DB001A467E4B13441968B4
:100560007B799B011846BA7913465B001344DB0084
:100570001A46784B13441A4641EA00031360BA79CD
:1005800013465B001344DB001A46734B13441A46B0
:100590003B681360BA7913465B001344DB001A46CC
:1005A0006E4B13441A463B691360BA7913465B00DD
:1005B0001344DB001A466A4B13441A467B691360E6
:1005C000BA7913465B001344DB001A46614B1344AF
:1005D00019683B7EDB021846BA7913465B00134468
:1005E000DB001A465B4B13441A4641EA00031360D2
:1005F000BA7913465B001344DB001A46554B13448B
:1006000019683B7E5B031846BA7913465B001344B6
:10061000DB001A464F4B13441A4641EA00031360AD
:10062000BA7913465B001344DB001A46494B134466
:10063000196897F820305B051846BA7913465B00B5
:100640001344DB001A46434B13441A4641EA0003A5
:100650001360BA7913465B001344DB001A463D4B26
:100660001344196897F82030DB051846BA79134609
:100670005B001344DB001A46364B13441A4641EA2A
:1006800000031360BA7913465B001344DB001A467B
:10069000304B134419683B7F5B021846BA79134606
:1006A0005B001344DB001A462A4B13441A4641EA06
:1006B00000031360BA7913465B001344DB001A464B
:1006C000244B134419683B7F9B021846BA791346A2
:1006D0005B001344DB001A461E4B13441A4641EAE2
:1006E00000031360BA7913465B001344DB001A461B
:1006F000184B1344196897F824301B041846BA792C
:1007000013465B001344DB001A46124B13441A468F
:1007100041EA00031360BA7913465B001344DB001F
:100720001A460C4B1344196897F82C305B01184695
:10073000BA7913465B001344DB001A46054B134499
:100740001A4641EA0003136000BF00BF0837BD46E8
:1007500080BD00BF10640240186402401C64024067
:100760001464024080B483B000AF03460A46FB71B4
:100770001346BB71FB79012B02D0022B38D06FE0FE
:10078000BA7913465B001344DB001A46374B134417
:100790001A4600231360BA7913465B001344DB004A
:1007A0001A46334B13441A4600231360BA79134692
:1007B0005B001344DB001A462E4B13441A460023F9
:1007C0001360BA7913465B001344DB001A462A4BC8
:1007D00013441A4600231360BA791346DB0013440E
:1007E0009B001A46254B13441A462123136037E019
:1007F000BA7913465B001344DB001A46204B1344BE
:100800001A4600231360BA7913465B001344DB00D9
:100810001A461C4B13441A4600231360BA79134638
:100820005B001344DB001A46174B13441A4600239F
:100830001360BA7913465B001344DB001A46134B6E
:1008400013441A4600231360BA791346DB0013449D
:100850009B001A460E4B13441A462123136000BF17
:1008600000BF0C37BD465DF8047B70471060024046
:1008700014600240186002401C6002402460024084
:100880001064024014640240186402401C64024078
:100890002464024080B483B000AF0346FB710B4672
:1008A000BB7113467B71FB79012B02D0022B2CD03C
:1008B00057E0BA791346DB0013449B001A462C4BD1
:1008C00013441968BA791346DB0013449B001A4697
:1008D000274B13441A4641F004031360BA791346B8
:1008E000DB0013449B001A46214B134418687979A6
:1008F000BA791346DB0013449B001A461C4B134481
:100900001A4640EA010313602BE0BA791346DB0074
:1009100013449B001A46174B13441968BA791346BF
:10092000DB0013449B001A46124B13441A4641F055
:1009300004031360BA791346DB0013449B001A4684
:100940000C4B134418687979BA791346DB001344C9
:100950009B001A46074B13441A4640EA01031360F2
:1009600000BF00BF0C37BD465DF8047B704700BF79
:10097000246002402464024080B582B000AF034688
:10098000FB71FB791946022000F0ACF8FA791346A6
:100990005B001344DB001A46094B13441968FA79CB
:1009A00013465B001344DB001A46054B13441A46FA
:1009B00041F00103136000BF0837BD4680BD00BF92
:1009C0001064024080B483B000AF0346FB710B4655
:1009D000BB7113467B71FB79012B02D0022B39D0FE
:1009E00071E07B79072B1AD1BA791346DB001344E7
:1009F0009B001A46374B134419687B79012202FA8F
:100A000003F31846BA791346DB0013449B001A46D9
:100A1000304B13441A4641EA0003136053E0BA799D
:100A200013465B001344DB001A462B4B1344196832
:100A30007B79012202FA03F31846BA7913465B0068
:100A40001344DB001A46244B13441A4641EA0003C0
:100A5000136038E07B79072B1AD1BA791346DB0093
:100A600013449B001A461D4B134419687B790122DD
:100A700002FA03F31846BA791346DB0013449B00CD
:100A80001A46164B13441A4641EA0003136019E054
:100A9000BA7913465B001344DB001A46104B13442B
:100AA00019687B79012202FA03F31846BA791346D2
:100AB0005B001344DB001A46094B13441A4641EA13
:100AC0000003136000BF00BF0C37BD465DF8047B18
:100AD000704700BF2460024010600240246402405E
:100AE0001064024080B483B000AF03460A46FB7135
:100AF0001346BB71FB79012B02D0022B1BD035E0D2
:100B0000BB79032B0BD8BA7913465B0013445B0007
:100B10001A463D2303FA02F2174B1A6026E0BA790F
:100B200013465B0013445B001A463D2303FA02F2AE
:100B3000124B1A601AE0BB79032B0BD8BA79134613
:100B40005B0013445B001A463D2303FA02F20C4B90
:100B50001A600AE0BA7913465B0013445B001A4638
:100B60003D2303FA02F2074B1A6000BF00BF0C37A7
:100B7000BD465DF8047B7047086002400C6002408F
:100B8000086402400C64024080B483B000AF0346A6
:100B9000FB710B46BB7113467B717B79072B03D02E
:100BA0007B790133DBB200E000237B71FB79012B01
:100BB00002D0022B23D045E0BB79032B0FD8254B65
:100BC00019687879BA7913465B0013445B000344D3
:100BD00021FA03F3DBB203F00103DBB233E01E4B77
:100BE00019687879BA7913465B0013445B000344B3
:100BF00021FA03F3DBB203F00103DBB223E0BB799C
:100C0000032B0FD8154B19687879BA7913465B0016
:100C100013445B00034421FA03F3DBB203F0010346
:100C2000DBB210E00E4B19687879BA7913465B0095
:100C300013445B00034421FA03F3DBB203F0010326
:100C4000DBB200E0002318460C37BD465DF8047B9C
:100C5000704700BF00600240046002400064024030
:100C60000464024080B500AF00F0FAF900210220D0
:100C7000FFF738FF00BF80BD80B483B000AF0346EC
:100C8000FB71084B1B68FA79012101FA02F2114647
:100C9000044A0B43136000BF0C37BD465DF8047B6C
:100CA000704700BF3038024090B482B000AF0446B5
:100CB000084611461A462346FB710346BB710B4694
:100CC0007B7113463B71FA79564913469B001344D6
:100CD0009B000B441B681968BB795B00032202FA76
:100CE00003F3DB431C46FA794E4813469B0013443A
:100CF0009B0003441B6801EA04021A60FA7949491F
:100D000013469B0013449B000B441B6819687A79B7
:100D1000BB795B0002FA03F31C46FA79414813469B
:100D20009B0013449B0003441B6841EA04021A60C1
:100D3000FA793C4913469B0013449B000B4404334F
:100D40001B681968BB79012202FA03F3DB431C46D6
:100D5000FA79344813469B0013449B000344043340
:100D60001B6801EA04021A60FA792E4913469B00B7
:100D700013449B000B4404331B6819683B7903F050
:100D80000102BB7902FA03F31C46FA79254813469F
:100D90009B0013449B00034404331B6841EA040294
:100DA0001A60FA791F4913469B0013449B000B44B9
:100DB00008331B681968BB795B00032202FA03F34E
:100DC000DB431C46FA79174813469B0013449B00EB
:100DD000034408331B6801EA04021A60FA791149D6
:100DE00013469B0013449B000B4408331B6819688F
:100DF0003B795B1003F00302BB795B0002FA03F35B
:100E00001C46FA79074813469B0013449B00034491
:100E100008331B6841EA04021A6000BF0837BD4668
:100E200090BC70470000002090B482B000AF034631
:100E3000FB710B46BB7113467B71FB79BA79D20803
:100E4000D2B211460E4A5B000B4452F823301A68A6
:100E50007979BB799B0001FA03F31846FB79B979DC
:100E6000C908C9B20C4606495B00234451F8233037
:100E700002431A6000BF0837BD4690BC704700BFF0
:100E80002800002090B482B000AF0346FB71FB79CC
:100E90005B09D8B203469B0003F1604303F561434D
:100EA0001A68FB7903F01F03012101FA03F31C46C2
:100EB00003469B0003F1604303F56143194642EA90
:100EC00004030B6000BF0837BD4690BC70470000AC
:100ED00080B400AF054B1B68044A43F40033136031
:100EE00000BFBD465DF8047B704700BF403802403C
:100EF00090B482B000AF0446084611461A46234615
:100F0000FB710346BB710B467B7113463B71184B5B
:100F10001B68174A43F400531360164B40F2836278
:100F20001A60134B1B68FA79012101FA02F211468B
:100F30000F4A0B4313600E4B1B687A79120311465C
:100F40000B4A0B4313600A4B1B683A79D2031146D4
:100F5000074A0B431360084B1B68BA79120311460A
:100F6000054A0B43136000BF0837BD4690BC70476D
:100F70000C440040084400401044004080B483B05A
:100F800000AF78600CE07B681A780B4B1A607B68C6
:100F900001337B60094B1B6803F04003002BF2D147
:100FA0007B681B78002BF5D100BF00BF0C37BD4616
:100FB0005DF8047B704700BF0444004000440040DB
:100FC00080B487B000AFF860B9607A6001237B61BC
:100FD0000EE07A697B6903F18043013B9B00F9686D
:100FE0000B44796801FB02F21A607B6901337B6173
:100FF0007B69BA689A42ECD200BF00BF1C37BD467D
:101000005DF8047B7047000080B584B000AF786065
:10101000054BFB607A680549F86800F0F1F8FB6859
:1010200018461037BD4680BDAC1A0008B01A00083B
:1010300080B500AF084BD3F88C311846FFF7E4FFBA
:1010400003461946054800F0FBF803461846FFF72B
:1010500095FF00BF80BD00BF54020020B41A0008F5
:1010600080B500AF042200210220FFF78DFD03466A
:10107000002B01D0FFF7DCFF00BF80BD80B588B03A
:1010800008AF0020FFF7F8FD002302220221002014
:10109000FFF70AFE072202210020FFF7C5FEFFF737
:1010A00017FF0023002200210320FFF721FF642205
:1010B00064212048FFF784FF002264211E48FFF7C7
:1010C0007FFF1D4BD3F88C311846FFF79DFF034679
:1010D00019461A4800F0B4F803461846FFF74EFFC9
:1010E0000220FFF7CDF80023079300230693032384
:1010F00005930123049301230393022302936423A2
:1011000001930D4B00930B4B022200210220FFF7AD
:10111000CFF8032200210220FFF7BCFB04220021AC
:101120000220FFF74FFC3820FFF7ACFE0020FFF74E
:1011300023FCFEE7C400002054020020E41A00084B
:1011400080B400AF064BD3F88830054A43F47003EF
:10115000C2F8883000BFBD465DF8047B704700BF11
:1011600000ED00E0DFF834D00D480E490E4A0023B0
:1011700002E0D458C4500433C4188C42F9D30B4A4B
:101180000B4C002301E013600432A242FBD3FFF7B3
:10119000D7FF00F011F8FFF771FF70470000012042
:1011A000000000209C000020341B00089C00002050
:1011B000F4030020FEE7000070B50D4D0D4C641BDC
:1011C000A4100026A64209D10B4D0C4C00F062FC85
:1011D000641BA4100026A64205D170BD55F8043B3F
:1011E00098470136EEE755F8043B98470136F2E799
:1011F0002C1B00082C1B00082C1B0008301B0008AF
:101200000EB400B59CB01DAB029006906FF000418B
:10121000094807910491094953F8042B0591006886
:10122000019302A900F076F8029B00221A701CB00C
:101230005DF804EB03B07047380000200802FFFFA0
:1012400010B50246147813460132002CFAD1013B46
:1012500011F8012B03F8012F002AF9D110BD2DE957
:10126000F0478E689E4282460C4690461F4638D80C
:101270008A8912F4906F32D025680969A5EB0109BB
:10128000656905EB450505EBD57501334B446D10DC
:101290009D4238BF1D46530531D5294600F046FB17
:1012A000064650B90C23CAF80030A38943F0400326
:1012B000A3814FF0FF30BDE8F08721694A4600F076
:1012C000BDFAA38923F4906343F08003A3812661D0
:1012D00065614E44A5EB09052660A5603E46BE4209
:1012E00000D93E4632462068414600F0B5FAA36870
:1012F00022689B1B3244A36022600020DBE72A4661
:1013000000F06EFB06460028E1D12169504600F04E
:10131000BDFAC7E72DE9F04F98468B891B069DB0B3
:1013200007460D4614460ED50B6963B9402100F0FF
:10133000FDFA2860286120B90C233B604FF0FF3094
:10134000D1E040236B610023099320238DF82930DD
:10135000CDF80C803023DFF8A8818DF82A304FF0CB
:10136000010923469A4613F8012B0AB1252AF9D11F
:10137000BAEB040B0BD05B46224629463846FFF7F2
:101380006EFF013000F0AA80099A5A4409929AF837
:101390000030002B00F0A28000234FF0FF32CDE997
:1013A00005230AF1010A049307938DF853301A9329
:1013B0005446052214F8011B5148FEF711FF049A08
:1013C000D8B9D00644BF20238DF85330110744BF4D
:1013D0002B238DF853309AF800302A2B15D0079A1A
:1013E000544600204FF00A0C214611F8013B303BD7
:1013F000092B4ED9B0B1079214E0A0EB080309FA0B
:1014000003F313430493A246D2E7039B191D1B6801
:101410000391002BBBBF5B4242F00202079307938C
:10142000B8BF049223782E2B0CD163782A2B35D1A8
:10143000039B1A1D1B680392002BB8BF4FF0FF33AC
:1014400002340593DFF8C8A0217803225046FEF746
:10145000C7FE40B14023A0EB0A0003FA00F0049B52
:1014600003430134049314F8011B26488DF8281017
:101470000622FEF7B5FE002838D0234B1BBB039B8A
:10148000073323F0070308330393099B334409937D
:1014900067E70CFB02320C460120A5E7002301346C
:1014A000059319464FF00A0C204610F8012B303AEC
:1014B000092A03D9002BC5D00591C3E70CFB0121F4
:1014C00004460123F0E703AB00932A460F4B04A91F
:1014D0003846AFF30080421C0646D6D1AB895B0686
:1014E0003FF52CAF09981DB0BDE8F08F03AB00931A
:1014F0002A46064B04A9384600F07AF8EBE700BF0D
:10150000F91A0008031B0008000000005F12000821
:10151000FF1A00082DE9F047164699468A680B69BC
:10152000DDF820809342B8BF1346336091F8432022
:1015300007460C460AB1013333602368990642BF5F
:10154000336802333360256815F0060506D104F1CF
:10155000190AE36832689B1AAB4226DC94F84320F0
:10156000131E226818BF012392062BD404F14302F4
:1015700049463846C04701301ED02368E5683268C6
:1015800003F00603042B08BFAD1AA36822690CBF41
:1015900025EAE57500259342C4BF9B1AED18002685
:1015A0001A34B5421AD1002008E0012352464946B8
:1015B0003846C047013003D14FF0FF30BDE8F08717
:1015C0000135C6E7E1185A1C302081F84300224457
:1015D00094F8451082F843100233C7E701232246EE
:1015E00049463846C0470130E6D00136D9E7000009
:1015F0002DE9FF470C469146277E0C99782F8046AF
:101600009A4604F1430207D8622F0AD8002F00F04F
:10161000D880582F00F0A38004F1420684F842706D
:101620003AE0A7F16303152BF6D801A050F823F098
:10163000891600089D1600081916000819160008DA
:1016400019160008191600089D160008191600083A
:10165000191600081916000819160008A91700081D
:10166000CD1600088B170008191600081916000877
:10167000CB17000819160008CD1600081916000827
:1016800019160008931700080B681A1D1B680A60DA
:1016900004F1420684F842300123A3E0256808687B
:1016A0002E0600F104030AD505680B60002D03DA4D
:1016B0002D236D4284F843305E480A2319E015F06B
:1016C000400F05680B6018BF2DB2EFE70B68256867
:1016D000181D0860280601D51D6802E06906FBD5C3
:1016E0001D8854486F2F0CBF08230A23002184F85B
:1016F00043106668A660002EA2BF216821F0040195
:1017000021600DB9002E4DD01646B5FBF3F103FB59
:101710001157C75D06F8017D2F46BB420D46F4D92F
:10172000082B0BD12368DF0708D52369616899422C
:10173000DEBF302306F8013C06F1FF36921B226122
:10174000CDF800A04B4603AA21464046FFF7E2FE33
:1017500001304CD14FF0FF3004B0BDE8F087354880
:1017600084F8457023680E681F0656F8045B0E6007
:1017700014D5D90744BF43F0200323601DB9236863
:1017800023F0200323601023B0E7236843F02003F5
:1017900023607823284884F84530E3E75E0648BF95
:1017A000ADB2E6E71646BBE70B68266860691D1D0B
:1017B0000D6035061B6801D5186002E07106FBD587
:1017C0001880002323611646BAE70B681A1D0A60C9
:1017D0001E68626800213046FEF702FD08B1801BDA
:1017E000606063682361002384F84330A8E72369BD
:1017F000324649464046D0470130ABD023689B076C
:1018000013D4E068039B9842B8BF1846A4E70123AD
:10181000324649464046D04701309BD00135E36807
:1018200003995B1AAB42F2DCEBE7002504F11906E1
:10183000F5E700BF0A1B00081B1B00080A44914281
:1018400000F1FF3300D1704710B511F8014B03F8D8
:10185000014F9142F9D110BD884210B501EB02044D
:1018600002D98442234607D8431EA14208D011F86A
:10187000012B03F8012FF8E7024401468A4200D108
:1018800010BD13F8014D02F8014DF7E737B50029F7
:1018900048D051F8043C0190002BA1F10404B8BFDA
:1018A000E41800F0D3F8204A01981368154633B9BC
:1018B0006360146003B0BDE8304000F0CDB8A342CF
:1018C0000BD921686218934204BF1A685B68636091
:1018D00004BF521822602C60ECE71A465B680BB11B
:1018E000A342FAD911685518A5420BD124682144A6
:1018F0005418A3421160DDD11C685B685360214419
:101900001160D7E702D90C230360D3E7256861197A
:101910008B4204BF19685B68636004BF491921608A
:101920005460C7E703B030BDB8000020F8B5CD1C47
:1019300025F0030508350C2D38BF0C25002D064673
:1019400001DBA94203D90C2333600020F8BD00F06D
:101950007DF821490A6814469CB9204F3B6823B999
:101960002146304600F062F838602946304600F0E3
:101970005DF8431C23D10C233360304600F06CF833
:10198000E3E723685B1B17D40B2B03D923601C44AC
:10199000256004E06368A2420CBF0B6053603046D0
:1019A00000F05AF804F10B00231D20F00700C21AC2
:1019B000CCD01B1AA350C9E722466468CCE7C41CEC
:1019C00024F00304A042E3D0211A304600F02EF8A0
:1019D0000130DDD1CFE700BFB8000020BC000020FF
:1019E000F8B5074614460E4621B9BDE8F840114641
:1019F000FFF79CBF22B9FFF749FF25462846F8BDEF
:101A000000F030F8A0420FD221463846FFF78EFF93
:101A100005460028F2D031462246FFF70FFF314637
:101A20003846FFF733FFE9E73546E7E738B5064DB7
:101A30000023044608462B6000F01EF8431C02D128
:101A40002B6803B1236038BDE4030020014800F097
:101A500011B800BFEC030020014800F00CB800BF33
:101A6000EC03002051F8043C181F002BBCBF0B589E
:101A7000C018704770477047044B1968024609B98F
:101A800003491960186802441A607047C0000020BA
:101A9000F8030020F8B500BFF8BC08BC9E467047AC
:0C1AA000F8B500BFF8BC08BC9E467047BB
:101AAC0000000000256400000D0A5472616E73661C
:101ABC00657220436F6D706C65746521204E6F7775
:101ACC00206C61737420656C656D656E7420657136
:101ADC0075616C73200000004C61737420656C653B
:101AEC006D656E7420657175616C732000232D30EB
:101AFC002B2000686C4C006566674546470030310A
:101B0C003233343536373839414243444546003058
:101B1C003132333435363738396162636465660087
:041B2C00C5010008E7
:041B3000A101000807
:101B340000000240040002400C0002401000024079
:101B44001400024000040240040402400C04024059
:101B54001004024014040240200002402400024009
:101B640020000240240002403C000020000000004D
:101B74000000000000000000000000000000000061
:101B84000000000000000000000000000000000051
:101B94000000000000000000000000000000000041
:101BA4000000000000000000000000000000000031
:101BB4000000000000000000000000000000000021
:0C1BC40000000000000000000000000015
:040000050800116579
:00000001FF
