:020000040800F2
:1000000000000120A9020008F9020008F902000816
:10001000F9020008F9020008F902000800000000D7
:10002000000000000000000000000000F9020008CD
:10003000F902000800000000F9020008F9020008B7
:10004000F9020008F9020008F9020008F9020008A4
:10005000F9020008F9020008F9020008F902000894
:10006000F9020008F9020008F9020008F902000884
:10007000F9020008F9020008F9020008F902000874
:10008000F9020008F9020008F90200080000000067
:10009000000000000000000000000000F90200085D
:1000A000F9020008F9020008F9020008F902000844
:1000B000F9020008F9020008F9020008F902000834
:1000C000F9020008F9020008F9020008F902000824
:1000D000F9020008F9020008F90200080000000017
:1000E000F9020008F9020008F90200080000000007
:1000F000000000000000000000000000F9020008FD
:1001000000000000F9020008F9020008F9020008E6
:1001100000000000000000000000000000000000DF
:10012000F9020008F9020008F9020008F9020008C3
:10013000F9020008000000000000000000000000BC
:10014000000000000000000000000000F9020008AC
:10015000F9020008F9020008F9020008F902000893
:10016000F9020008F9020008000000000000000089
:10017000000000000000000000000000000000007F
:1001800000000000F902000800000000000000006C
:04019000F902000868
:1001940010B5054C237833B9044B13B10448AFF3BD
:1001A40000800123237010BD000000200000000027
:1001B400E008000808B5034B1BB103490348AFF33B
:1001C400008008BD0000000004000020E0080008D2
:1001D40080B483B000AF786000BF7B685A1E7A6039
:1001E400002BFAD100BF00BF0C37BD465DF8047B7D
:1001F4007047000080B582B000AF002301220421C3
:10020400412000F079F8002301220521412000F06B
:1002140073F8002301220621412000F06DF8002329
:1002240001220721412000F067F800230122082160
:10023400412000F061F8002301220921412000F04F
:100244005BF8002301220A21412000F055F8002325
:100254007B607A68531C7B60074BA3FB0213D908AD
:100264000B469B000B445B00D11A084600F090F942
:100274000248FFF7ADFFECE7CDCCCCCC60E3160031
:1002840080B400AF064BD3F88830054A43F47003BA
:10029400C2F8883000BFBD465DF8047B704700BFDC
:1002A40000ED00E0DFF834D00D480E490E4A00237B
:1002B40002E0D458C4500433C4188C42F9D30B4A16
:1002C4000B4C002301E013600432A242FBD3FFF77E
:1002D400D7FF00F0DFFAFFF78DFF70470000012021
:1002E4000000002000000020000900080000002099
:1002F4001C000020FEE7000080B485B000AFB960A8
:100304007A603B600346FB73FB7B412B02D0422B9C
:1003140064D0C7E0664B1B6B654A43F0010313636B
:100324007B68032B3BD801A252F823F04103000859
:100334005B030008730300088B0300085D4B1B6814
:10034400BA685200032101FA02F2D2431146594A13
:100354000B40136023E0574B1B68BA68520001211D
:1003640001FA02F21146534A0B43136017E0514B52
:100374001B68BA685200022101FA02F211464D4A82
:100384000B4313600BE04B4B1B68BA68520003210C
:1003940001FA02F21146474A0B43136000BF3B685F
:1003A400002B03D03B68012B0CD07BE0414B5B68F6
:1003B4000121BA6801FA02F2D24311463D4A0B40C8
:1003C40053600AE03B4B5B680121BA6801FA02F210
:1003D4001146384A0B43536000BF63E0344B1B6B38
:1003E400334A43F0020313637B68032B3BD801A217
:1003F40052F823F009040008230400083B04000811
:10040400530400082C4B1B68BA685200032101FAFC
:1004140002F2D2431146284A0B40136023E0264BD4
:100424001B68BA685200012101FA02F21146224AFD
:100434000B43136017E0204B1B68BA68520002217B
:1004440001FA02F211461C4A0B4313600BE01A4BEB
:100454001B68BA685200032101FA02F21146164AD7
:100464000B43136000BF3B68002B03D03B68012B98
:100474000CD016E0104B5B680121BA6801FA02F255
:10048400D24311460C4A0B4053600AE00A4B5B68A6
:100494000121BA6801FA02F21146074A0B4353607C
:1004A40000BF00BF00BF1437BD465DF8047B704732
:1004B40000380240000002400004024080B487B0CB
:1004C40000AF0346B9607A60FB73FB7B412B02D01B
:1004D400422B29D051E02C4B1A68BB685B0022FAEE
:1004E40003F303F00103002B1BD07B68002B0AD01D
:1004F400254B5B690121BA6801FA02F21146224ACE
:100504000B4353610AE0204B5B690121BA6801FA8D
:1005140002F2D24311461C4A0B4053610023FB757F
:100524002BE00123FB7528E0184B1A68BB685B00BD
:1005340022FA03F303F00103002B1BD07B68002B8A
:100544000AD0124B5B690121BA6801FA02F2114622
:100554000E4A0B4353610AE00C4B5B690121BA68F4
:1005640001FA02F2D2431146084A0B4053610023B8
:10057400FB7501E00123FB7500BFFB7D18461C37AA
:10058400BD465DF8047B7047000002400004024051
:1005940080B582B000AF7860002204214120FFF7CB
:1005A4008DFF002205214120FFF788FF002206214C
:1005B4004120FFF783FF002207214120FFF77EFF40
:1005C400002208214120FFF779FF00220921412060
:1005D400FFF774FF00220A214120FFF76FFF7B68B9
:1005E400092B35D801A252F823F000BF19060008E0
:1005F4001F060008250600082B060008310600081F
:10060400370600083D0600084306000849060008AE
:100614004F06000800F020F81AE000F03FF817E059
:1006240000F04AF814E000F064F811E000F07EF8FD
:100634000EE000F093F80BE000F0ADF808E000F0F5
:10064400CCF805E000F0DCF802E000F000F900BFAF
:1006540000BF0837BD4680BD80B500AF012204212C
:100664004120FFF72BFF012205214120FFF726FF40
:10067400012206214120FFF721FF01220721412009
:10068400FFF71CFF012208214120FFF717FF012279
:1006940009214120FFF712FF00BF80BD80B500AFE4
:1006A400012205214120FFF709FF012206214120F3
:1006B400FFF704FF00BF80BD80B500AF0122042115
:1006C4004120FFF7FBFE012205214120FFF7F6FE42
:1006D400012207214120FFF7F1FE012208214120D8
:1006E400FFF7ECFE01220A214120FFF7E7FE00BFDD
:1006F40080BD80B500AF012204214120FFF7DEFE5A
:10070400012205214120FFF7D9FE012206214120C3
:10071400FFF7D4FE012207214120FFF7CFFE01227B
:100724000A214120FFF7CAFE00BF80BD80B500AF9B
:10073400012205214120FFF7C1FE012206214120AB
:10074400FFF7BCFE012209214120FFF7B7FE012279
:100754000A214120FFF7B2FE00BF80BD80B500AF83
:10076400012204214120FFF7A9FE01220621412094
:10077400FFF7A4FE012207214120FFF79FFE01227B
:1007840009214120FFF79AFE01220A214120FFF7A7
:1007940095FE00BF80BD80B500AF01220421412039
:1007A400FFF78CFE012206214120FFF787FE01227C
:1007B40007214120FFF782FE012208214120FFF793
:1007C4007DFE012209214120FFF778FE01220A2142
:1007D4004120FFF773FE00BF80BD80B500AF01224A
:1007E40004214120FFF76AFE012205214120FFF781
:1007F40065FE012206214120FFF760FE00BF80BD97
:1008040080B500AF012204214120FFF757FE0122E9
:1008140005214120FFF752FE012206214120FFF766
:100824004DFE012207214120FFF748FE0122082145
:100834004120FFF743FE012209214120FFF73EFE3C
:1008440001220A214120FFF739FE00BF80BD80B597
:1008540000AF012204214120FFF730FE01220521CF
:100864004120FFF72BFE012206214120FFF726FE3F
:10087400012207214120FFF721FE01220921412005
:10088400FFF71CFE01220A214120FFF717FE00BFDB
:1008940080BD000070B50D4D0D4C641BA4100026E6
:1008A400A64209D10B4D0C4C00F018F8641BA4109F
:1008B4000026A64205D170BD55F8043B9847013681
:1008C400EEE755F8043B98470136F2E7F8080008CC
:1008D400F8080008F8080008FC080008F8B500BF8C
:1008E400F8BC08BC9E467047F8B500BFF8BC08BC0D
:0408F4009E46704765
:0408F800B90100083A
:0408FC00950100085A
:04000005080002A944
:00000001FF
