:020000040800F2
:100000000000012079020008C9020008C9020008A6
:10001000C9020008C9020008C90200080000000067
:10002000000000000000000000000000C9020008FD
:10003000C902000800000000C9020008C902000847
:10004000C9020008C9020008C9020008C902000864
:10005000C9020008C9020008C9020008C902000854
:10006000C9020008C9020008C9020008C902000844
:10007000C9020008C9020008C9020008C902000834
:10008000C9020008C9020008C902000800000000F7
:10009000000000000000000000000000C90200088D
:1000A000C9020008C9020008C9020008C902000804
:1000B000C9020008C9020008C9020008C9020008F4
:1000C000C9020008C9020008C9020008C9020008E4
:1000D000C9020008C9020008C902000800000000A7
:1000E000C9020008C9020008C90200080000000097
:1000F000000000000000000000000000C90200082D
:1001000000000000C9020008C9020008C902000876
:1001100000000000000000000000000000000000DF
:10012000C9020008C9020008C9020008C902000883
:10013000C9020008000000000000000000000000EC
:10014000000000000000000000000000C9020008DC
:10015000C9020008C9020008C9020008C902000853
:10016000C9020008C90200080000000000000000E9
:10017000000000000000000000000000000000007F
:1001800000000000C902000800000000000000009C
:04019000C902000898
:1001940010B5054C237833B9044B13B10448AFF3BD
:1001A40000800123237010BD000000200000000027
:1001B4001403000808B5034B1BB103490348AFF30C
:1001C400008008BD000000000400002014030008A3
:1001D40080B483B000AF786000BF7B685A1E7A6039
:1001E400002BFAD100BF00BF0C37BD465DF8047B7D
:1001F4007047000080B500AF124B1B6B114A43F0EF
:1002040001031363104B1B680F4A43F0010313608F
:100214000D4B5B680C4A23F0010353600A4B5B6986
:10022400094A23F0010353610848FFF7D1FF064B45
:100234005B69054A43F0010353610448FFF7C8FFB3
:10024400ECE700BF003802400000024040420F00CB
:1002540080B400AF064BD3F88830054A43F47003EA
:10026400C2F8883000BFBD465DF8047B704700BF0C
:1002740000ED00E0DFF834D00D480E490E4A0023AB
:1002840002E0D458C4500433C4188C42F9D30B4A46
:100294000B4C002301E013600432A242FBD3FFF7AE
:1002A400D7FF00F011F8FFF7A5FF70470000012009
:1002B400000000200000002034030008000000209B
:1002C4001C000020FEE7000070B50D4D0D4C641BB2
:1002D400A4100026A64209D10B4D0C4C00F018F8CE
:1002E400641BA4100026A64205D170BD55F8043B3A
:1002F40098470136EEE755F8043B98470136F2E794
:100304002C0300082C0300082C0300083003000809
:10031400F8B500BFF8BC08BC9E467047F8B500BFEE
:08032400F8BC08BC9E467047BE
:04032C00B90100080B
:04033000950100082B
:040000050800027974
:00000001FF
