:020000040800F2
:10000000000001201D0700086D0700086D070008AB
:100010006D0700086D0700086D070008000000006C
:100020000000000000000000000000006D07000854
:100030006D070008000000006D0700086D0700084C
:100040006D0700086D0700086D0700086D070008C0
:100050006D0700086D0700086D0700086D070008B0
:100060006D0700086D0700086D0700086D070008A0
:100070006D0700086D0700086D0700086D07000890
:100080006D0700086D0700086D07000800000000FC
:100090000000000000000000000000006D070008E4
:1000A0006D0700086D0700086D0700086D07000860
:1000B0006D0700086D0700086D0700086D07000850
:1000C0006D0700086D0700086D0700086D07000840
:1000D0006D0700086D0700086D07000800000000AC
:1000E0006D0700086D0700086D070008000000009C
:1000F0000000000000000000000000006D07000884
:10010000000000006D0700086D0700086D0700087B
:1001100000000000000000000000000000000000DF
:100120006D0700086D0700086D0700086D070008DF
:100130006D07000800000000000000000000000043
:100140000000000000000000000000006D07000833
:100150006D0700086D0700086D0700086D070008AF
:100160006D0700086D070008000000000000000097
:10017000000000000000000000000000000000007F
:10018000000000006D0700080000000000000000F3
:040190006D070008EF
:1001940010B5054C237833B9044B13B10448AFF3BD
:1001A40000800123237010BD1C000020000000000B
:1001B400B807000808B5034B1BB103490348AFF364
:1001C400008008BD0000000020000020B8070008DF
:1001D40080B483B000AF0346FB71FB79412B02D09E
:1001E400422B07D00DE00A4B1B6B094A43F0010375
:1001F400136306E0064B1B6B054A43F002031363CB
:1002040000BF00BF0C37BD465DF8047B704700BFDC
:100214000038024090B482B000AF0446084611464C
:100224001A462346FB710346BB710B467B7113468A
:100234003B71FB79412B02D0422B49D091E04B4BCF
:100244001B68BA795200032101FA02F2D243114623
:10025400464A0B401360454B1B687979BA795200C2
:1002640001FA02F21146414A0B4313603F4B5B68AB
:10027400BA79012101FA02F2D24311463B4A0B40FA
:1002840053603A4B5B683A7902F00101BA7901FA9A
:1002940002F21146354A0B435360344BDB68BA799A
:1002A4005200032101FA02F2D24311462F4A0B40B5
:1002B400D3602E4BDB683A79521002F00301BA790D
:1002C400520001FA02F21146284A0B43D36048E077
:1002D400274B1B68BA795200032101FA02F2D24378
:1002E4001146234A0B401360214B1B687979BA7974
:1002F400520001FA02F211461D4A0B4313601C4BD3
:100304005B68BA79012101FA02F2D2431146184A14
:100314000B405360164B5B683A7902F00101BA79DD
:1003240001FA02F21146124A0B435360104BDB6888
:10033400BA795200032101FA02F2D24311460C4A5F
:100344000B40D3600A4BDB683A79521002F0030188
:10035400BA79520001FA02F21146054A0B43D360FE
:1003640000BF00BF0837BD4690BC70470000024084
:100374000004024080B485B000AF0346FB710B4615
:10038400BB7113467B71FB79412B02D0422B2DD0DC
:1003940059E0324B1B68BA795200032101FA02F288
:1003A4001A40BB795B0022FA03F3012B1BD17B7942
:1003B400002B0AD0294B5B69BA79012101FA02F2B8
:1003C4001146264A0B4353610AE0244B5B69BA7910
:1003D400012101FA02F2D2431146204A0B40536133
:1003E4000023FB7332E00123FB732FE01C4B1B68DB
:1003F400BA795200032101FA02F21A40BB795B0078
:1004040022FA03F3012B1BD17B79002B0AD0144B66
:100414005B69BA79012101FA02F21146104A0B43D1
:1004240053610AE00E4B5B69BA79012101FA02F2C9
:10043400D24311460A4A0B4053610023FB7305E083
:100444000123FB7302E00123FB7300BFFB7B18460F
:100454001437BD465DF8047B704700BF00000240BE
:100464000004024080B485B000AF03460A46FB7125
:100474001346BB710023FB73FB79412B02D0422B43
:100484000CD017E00F4B1B69BA79012101FA02F273
:100494001A40BB7922FA03F3FB730BE00A4B1B6986
:1004A400BA79012101FA02F21A40BB7922FA03F364
:1004B400FB7300BFFB7B18461437BD465DF8047B15
:1004C400704700BF000002400004024080B483B0C3
:1004D40000AF00237B6002E07B6801337B607B68B4
:1004E40047F22F529342F7D900BF00BF0C37BD46E5
:1004F4005DF8047B704780B582B000AF0023FB71C8
:1005040008E0F979002301224220FFF783FEFB79FA
:100514000133FB71FB79022BF3D90323BB7108E090
:10052400B979022300224220FFF774FEBB7901331C
:10053400BB71BB79062BF3D900BF00BF0837BD469A
:1005440080BD000080B582B000AF374B1B78012B13
:1005540065D10023FB715FE0FA79344BA3FB0213EE
:1005640059080B465B000B44D31ADBB20022194630
:100574004220FFF7FFFEFB795A1C2D4B83FB02310F
:10058400D317C91A0B465B000B44D11ACBB2012214
:1005940019464220FFF7EEFEFB799A1C244B83FB9D
:1005A4000231D317C91A0B465B000B44D11ACBB2E4
:1005B400012219464220FFF7DDFE0323BB7125E02B
:1005C400BB7919464220FFF74DFF0346002B1AD191
:1005D400FFF77CFFBB7919464220FFF743FF034630
:1005E400002B10D1104B00221A70BB79DA1EF97956
:1005F400104813465B00134403440B441A780E4B13
:100604001A7000F02BF8BB790133BB71BB79062B50
:10061400D6D9FB790133FB71FB79022B9CD900BF3E
:100624000837BD4680BD00BF00000020ABAAAAAABF
:1006340056555555040000203800002080B400AF02
:10064400044B01221A70044B1B781846BD465DF812
:10065400047B7047000000203800002080B582B081
:1006640000AFFFF7EBFF0346BB71BB79092B1CD826
:100674000023FB7115E0BB790E4AD35C1946FB7964
:10068400012202FA03F301EA0302FB7942FA03F3BB
:10069400DAB2FB7919464120FFF76CFEFB7901338E
:1006A400FB71FB79062BE6D900E000BF0837BD4695
:1006B40080BD00BF1000002080B582B000AF412093
:1006C400FFF786FD4220FFF783FD0023FB7108E05E
:1006D400F979002301224120FFF79CFDFB790133C6
:1006E400FB71FB79062BF3D9FFF705FFFFF72AFF10
:1006F400FCE7000080B400AF064BD3F88830054A0D
:1007040043F47003C2F8883000BFBD465DF8047B33
:10071400704700BF00ED00E0DFF834D00D480E490B
:100724000E4A002302E0D458C4500433C4188C4247
:10073400F9D30B4A0B4C002301E013600432A242AC
:10074400FBD3FFF7D7FF00F011F8FFF7B5FF7047B1
:1007540000000120000000201C000020D807000831
:100764001C0000203C000020FEE7000070B50D4D89
:100774000D4C641BA4100026A64209D10B4D0C4C51
:1007840000F018F8641BA4100026A64205D170BD21
:1007940055F8043B98470136EEE755F8043B984773
:1007A4000136F2E7D0070008D0070008D007000898
:1007B400D4070008F8B500BFF8BC08BC9E467047D3
:0C07C400F8B500BFF8BC08BC9E467047AA
:0407D000B901000863
:0407D4009501000883
:1007D80001000000010203040506070809FF00FFE5
:0C07E8003F065B4F666D7D077F6F0000D1
:040000050800071DCB
:00000001FF
