:020000040800F2
:1000000000000120A1070008F1070008F10700081F
:10001000F1070008F1070008F107000800000000E0
:10002000000000000000000000000000F1070008D0
:10003000F107000800000000F1070008F1070008C0
:10004000F1070008F1070008F1070008F1070008B0
:10005000F1070008F1070008C50500083D06000883
:10006000F1070008F1070008F1070008F107000890
:10007000F1070008F1070008F1070008F107000880
:10008000F1070008F1070008F10700080000000070
:10009000000000000000000000000000F107000860
:1000A000F1070008F1070008F1070008F107000850
:1000B000F1070008F1070008F1070008F107000840
:1000C000F1070008F1070008F1070008F107000830
:1000D000F1070008F1070008F10700080000000020
:1000E000F1070008F1070008F10700080000000010
:1000F000000000000000000000000000F107000800
:1001000000000000F1070008F1070008F1070008EF
:1001100000000000000000000000000000000000DF
:10012000F1070008F1070008F1070008F1070008CF
:10013000F1070008000000000000000000000000BF
:10014000000000000000000000000000F1070008AF
:10015000F1070008F1070008F1070008F10700089F
:10016000F1070008F107000800000000000000008F
:10017000000000000000000000000000000000007F
:1001800000000000F107000800000000000000006F
:04019000F10700086B
:1001940010B5054C237833B9044B13B10448AFF3BD
:1001A40000800123237010BD3400002000000000F3
:1001B4003C08000808B5034B1BB103490348AFF3DF
:1001C400008008BD00000000380000203C08000842
:1001D40080B483B000AF0346FB71084B1B68FA7907
:1001E400012101FA02F21146044A0B43136000BFD5
:1001F4000C37BD465DF8047B704700BF143C0140DA
:1002040080B483B000AF0346FB71084B1B68FA79D6
:10021400012101FA02F21146044A0B43136000BFA4
:100224000C37BD465DF8047B704700BF003C0140BD
:1002340080B483B000AF0346FB71084B1B68FA79A6
:10024400012101FA02F21146044A0B40136000BF77
:100254000C37BD465DF8047B704700BF003C01408D
:1002640080B483B000AF0346FB71084B1B68FA7976
:10027400012101FA02F21146044A0B43136000BF44
:100284000C37BD465DF8047B704700BF0C3C014051
:1002940090B482B000AF0446084611461A4623467D
:1002A400FB710346BB710B467B7113463B71FA79B4
:1002B400564913469B0013449B000B441B68196862
:1002C400BB795B00032202FA03F3DB431C46FA7991
:1002D4004E4813469B0013449B0003441B6801EAE9
:1002E40004021A60FA79494913469B0013449B009F
:1002F4000B441B6819687A79BB795B0002FA03F333
:100304001C46FA79414813469B0013449B0003445E
:100314001B6841EA04021A60FA793C4913469B00BF
:1003240013449B000B4404331B681968BB790122F6
:1003340002FA03F3DB431C46FA79344813469B0064
:1003440013449B00034404331B6801EA04021A604B
:10035400FA792E4913469B0013449B000B44043343
:100364001B6819683B7903F00102BB7902FA03F3B5
:100374001C46FA79254813469B0013449B0003440A
:1003840004331B6841EA04021A60FA791F491346D0
:100394009B0013449B000B4408331B681968BB790A
:1003A4005B00032202FA03F3DB431C46FA79174885
:1003B40013469B0013449B00034408331B6801EA63
:1003C40004021A60FA79114913469B0013449B00F6
:1003D4000B4408331B6819683B795B1003F0030274
:1003E400BB795B0002FA03F31C46FA79074813460B
:1003F4009B0013449B00034408331B6841EA040236
:100404001A6000BF0837BD4690BC7047000000204A
:1004140090B484B000AF0346FB710B46BB71134626
:100424007B71FA792C4913469B0013449B000B44BF
:100434001B681B68BA795200032101FA02F21A40C0
:10044400BB795B0022FA03F3012B3DD17B79002BAE
:100454001BD0FA79204913469B0013449B000B449C
:1004640010331B681968BB79012202FA03F31C4696
:10047400FA79194813469B0013449B000344103334
:100484001B6841EA04021A601BE0FA791249134618
:100494009B0013449B000B4410331B681968BB7901
:1004A400012202FA03F3DB431C46FA790A48134695
:1004B4009B0013449B00034410331B6801EA0402AD
:1004C4001A600023FB7301E00123FB73FB7B1846D6
:1004D4001037BD4690BC70470000002080B483B044
:1004E40000AF0346FB71084B1B68FA79012101FA3E
:1004F40002F292011146044A0B43136000BF0C3709
:10050400BD465DF8047B704700E100E080B483B031
:1005140000AF0346FB71084B1B68FA79012101FA0D
:1005240002F21146044A0B43136000BF0C37BD4668
:100534005DF8047B704700BF3038024080B400AFE0
:10054400054B1B68044A43F48043136000BFBD4657
:100554005DF8047B704700BF4438024080B483B028
:1005640000AF03460A46FB711346BB71094B1B6877
:10057400FA79C2F10F01BA79920001FA02F2D24378
:100584001146044A0B40136000BF0C37BD465DF8AA
:10059400047B70470838014080B500AF0020FFF7A6
:1005A4002FFE0120FFF72CFE00BF80BD80B500AFF9
:1005B4000020FFF73DFE0120FFF73AFE00BF80BD9B
:1005C40080B582B000AFFFF7F1FF194B1B78092B00
:1005D40004D0174B1B780133DBB200E00923144A23
:1005E4001370FFF7D9FF0023FB7117E0104B1B7842
:1005F4001A46104B9B5C1946FB79012202FA03F35D
:1006040001EA0302FB7942FA03F3DAB2FB791946F1
:100614000120FFF7FDFEFB790133FB71FB79062B0B
:10062400E4D90020FFF7D4FD00BF0837BD4680BDE4
:10063400500000202800002080B582B000AFFFF7F2
:10064400B5FF194B1B78002B04D0174B1B78013BCB
:10065400DBB200E00023144A1370FFF79DFF002370
:10066400FB7117E0104B1B781A46104B9B5C194624
:10067400FB79012202FA03F301EA0302FB7942FA4D
:1006840003F3DAB2FB7919460120FFF7C1FEFB79C7
:100694000133FB71FB79062BE4D90120FFF798FDA8
:1006A40000BF0837BD4680BD500000202800002050
:1006B40080B582B000AF0020FFF728FF0120FFF7CC
:1006C40025FF0223002200210020FFF7E1FD022381
:1006D400002201210020FFF7DBFD0023FB7108E06D
:1006E400F979002301220120FFF7D2FDFB790133C0
:1006F400FB71FB79062BF3D9FFF720FF00210020C3
:10070400FFF72CFF01210020FFF728FF0020FFF74F
:1007140077FD0120FFF774FD0020FFF7A1FD012004
:10072400FFF79EFD0020FFF7D9FE0120FFF7D6FE5C
:100734000023BB7117E00E4B1B781A460D4B9B5CD4
:100744001946BB79012202FA03F301EA0302BB79D9
:1007540042FA03F3DAB2BB7919460120FFF758FED7
:10076400BB790133BB71BB79062BE4D9FEE700BF2B
:10077400500000202800002080B400AF064BD3F8BE
:100784008830054A43F47003C2F8883000BFBD4680
:100794005DF8047B704700BF00ED00E0DFF834D063
:1007A4000D480E490E4A002302E0D458C4500433C5
:1007B400C4188C42F9D30B4A0B4C002301E013609C
:1007C4000432A242FBD3FFF7D7FF00F011F8FFF782
:1007D4006FFF70470000012000000020340000205B
:1007E4005C0800083400002054000020FEE70000EC
:1007F40070B50D4D0D4C641BA4100026A64209D102
:100804000B4D0C4C00F018F8641BA4100026A642F3
:1008140005D170BD55F8043B98470136EEE755F80D
:10082400043B98470136F2E75408000854080008CE
:100834005408000858080008F8B500BFF8BC08BC04
:100844009E467047F8B500BFF8BC08BC9E4670478A
:04085400B9010008DE
:0408580095010008FE
:10085C0000000240040002400C0002401000024064
:10086C001400024000040240040402400C04024044
:10087C0010040240140402403F065B4F666D7D0776
:04088C007F6F00007A
:04000005080007A147
:00000001FF
