:020000040800F2
:100000000000012049070008990700089907000827
:1000100099070008990700089907000800000000E8
:100020000000000000000000000000009907000828
:1000300099070008000000009907000899070008C8
:100040009907000899070008990700089907000810
:100050009907000899070008E10500080D06000847
:1000600099070008990700089907000899070008F0
:1000700099070008990700089907000899070008E0
:100080009907000899070008990700080000000078
:1000900000000000000000000000000099070008B8
:1000A00099070008990700089907000899070008B0
:1000B00099070008990700089907000899070008A0
:1000C0009907000899070008990700089907000890
:1000D0009907000899070008990700080000000028
:1000E0009907000899070008990700080000000018
:1000F0000000000000000000000000009907000858
:1001000000000000990700089907000899070008F7
:1001100000000000000000000000000000000000DF
:10012000990700089907000899070008990700082F
:100130009907000800000000000000000000000017
:100140000000000000000000000000009907000807
:1001500099070008990700089907000899070008FF
:10016000990700089907000800000000000000003F
:10017000000000000000000000000000000000007F
:1001800000000000990700080000000000000000C7
:0401900099070008C3
:1001940010B5054C237833B9044B13B10448AFF3BD
:1001A40000800123237010BD3400002000000000F3
:1001B400E407000808B5034B1BB103490348AFF338
:1001C400008008BD0000000038000020E40700089B
:1001D40080B483B000AF0346FB71084B1B68FA7907
:1001E400012101FA02F21146044A0B43136000BFD5
:1001F4000C37BD465DF8047B704700BF143C0140DA
:1002040080B483B000AF0346FB71084B1B68FA79D6
:10021400012101FA02F21146044A0B43136000BFA4
:100224000C37BD465DF8047B704700BF003C0140BD
:1002340080B483B000AF0346FB71084B1B68FA79A6
:10024400012101FA02F21146044A0B40136000BF77
:100254000C37BD465DF8047B704700BF003C01408D
:1002640080B483B000AF0346FB71084B1B68FA7976
:10027400012101FA02F21146044A0B43136000BF44
:100284000C37BD465DF8047B704700BF0C3C014051
:1002940090B482B000AF0446084611461A4623467D
:1002A400FB710346BB710B467B7113463B71FA79B4
:1002B400564913469B0013449B000B441B68196862
:1002C400BB795B00032202FA03F3DB431C46FA7991
:1002D4004E4813469B0013449B0003441B6801EAE9
:1002E40004021A60FA79494913469B0013449B009F
:1002F4000B441B6819687A79BB795B0002FA03F333
:100304001C46FA79414813469B0013449B0003445E
:100314001B6841EA04021A60FA793C4913469B00BF
:1003240013449B000B4404331B681968BB790122F6
:1003340002FA03F3DB431C46FA79344813469B0064
:1003440013449B00034404331B6801EA04021A604B
:10035400FA792E4913469B0013449B000B44043343
:100364001B6819683B7903F00102BB7902FA03F3B5
:100374001C46FA79254813469B0013449B0003440A
:1003840004331B6841EA04021A60FA791F491346D0
:100394009B0013449B000B4408331B681968BB790A
:1003A4005B00032202FA03F3DB431C46FA79174885
:1003B40013469B0013449B00034408331B6801EA63
:1003C40004021A60FA79114913469B0013449B00F6
:1003D4000B4408331B6819683B795B1003F0030274
:1003E400BB795B0002FA03F31C46FA79074813460B
:1003F4009B0013449B00034408331B6841EA040236
:100404001A6000BF0837BD4690BC7047000000204A
:1004140090B484B000AF0346FB710B46BB71134626
:100424007B71FA792C4913469B0013449B000B44BF
:100434001B681B68BA795200032101FA02F21A40C0
:10044400BB795B0022FA03F3012B3DD17B79002BAE
:100454001BD0FA79204913469B0013449B000B449C
:1004640010331B681968BB79012202FA03F31C4696
:10047400FA79194813469B0013449B000344103334
:100484001B6841EA04021A601BE0FA791249134618
:100494009B0013449B000B4410331B681968BB7901
:1004A400012202FA03F3DB431C46FA790A48134695
:1004B4009B0013449B00034410331B6801EA0402AD
:1004C4001A600023FB7301E00123FB73FB7B1846D6
:1004D4001037BD4690BC70470000002080B483B044
:1004E40000AF0346FB71084B1B68FA79012101FA3E
:1004F40002F292011146044A0B43136000BF0C3709
:10050400BD465DF8047B704700E100E080B483B031
:1005140000AF0346FB71084B1B68FA79012101FA0D
:1005240002F21146044A0B43136000BF0C37BD4668
:100534005DF8047B704700BF3038024080B400AFE0
:10054400054B1B68044A43F48043136000BFBD4657
:100554005DF8047B704700BF4438024080B483B028
:1005640000AF03460A46FB711346BB71FB79002BAF
:100574000BD00F4B1B68F979BA79920001FA02F299
:1005840011460B4A0B4313600BE0094B1B68BA7905
:1005940092000F2101FA02F2D2431146044A0B40A1
:1005A400136000BF0C37BD465DF8047B704700BF85
:1005B4000838014080B500AF0020FFF721FE01207C
:1005C400FFF71EFE00BF80BD80B500AF0020FFF71F
:1005D4002FFE0120FFF72CFE00BF80BD80B500AFC9
:1005E400084B1B78092B04D0064B1B780133DBB274
:1005F40000E00923034A13700020FFF7E9FD00BF60
:1006040080BD00BF5000002080B500AF084B1B78B0
:10061400002B04D0064B1B78013BDBB200E0002327
:10062400034A13700120FFF7D3FD00BF80BD00BF54
:100634005000002080B584B000AF0346FB71002356
:10064400FB7315E0FB790E4AD35C1946FB7B012250
:1006540002FA03F301EA0302FB7B42FA03F3DAB280
:10066400FB7B19460120FFF7D3FEFB7B0133FB73B1
:10067400FB7B062BE6D900BF00BF1037BD4680BD0B
:100684002800002080B582B000AF0020FFF73EFFB5
:100694000120FFF73BFF0223002200210020FFF787
:1006A400F7FD0223002201210020FFF7F1FD0023C2
:1006B400FB7108E0F979002301220120FFF7E8FD2E
:1006C400FB790133FB71FB79062BF3D9FFF736FF76
:1006D40000210020FFF742FF01210020FFF73EFF29
:1006E4000020FFF78DFD0120FFF78AFD0020FFF7B2
:1006F400B7FD0120FFF7B4FD0020FFF7EFFE012056
:10070400FFF7ECFEFFF760FF044B1B78BB71FFF7AC
:1007140051FFBB791846FFF78DFFF3E75000002027
:1007240080B400AF064BD3F88830054A43F4700315
:10073400C2F8883000BFBD465DF8047B704700BF37
:1007440000ED00E0DFF834D00D480E490E4A0023D6
:1007540002E0D458C4500433C4188C42F9D30B4A71
:100764000B4C002301E013600432A242FBD3FFF7D9
:10077400D7FF00F011F8FFF785FF70470000012054
:100784000000002034000020040800083400002089
:1007940054000020FEE7000070B50D4D0D4C641BA5
:1007A400A4100026A64209D10B4D0C4C00F018F8F9
:1007B400641BA4100026A64205D170BD55F8043B65
:1007C40098470136EEE755F8043B98470136F2E7BF
:1007D400FC070008FC070008FC07000800080008E4
:1007E400F8B500BFF8BC08BC9E467047F8B500BF1A
:0807F400F8BC08BC9E467047EA
:0407FC00B901000837
:040800009501000856
:1008040000000240040002400C00024010000240BC
:100814001400024000040240040402400C0402409C
:1008240010040240140402403F065B4F666D7D07CE
:040834007F6F0000D2
:04000005080007499F
:00000001FF
