:020000040800F2
:10000000000001203D0600088D0600088D0600084E
:100010008D0600088D0600088D060008000000000F
:100020000000000000000000000000008D06000835
:100030008D060008000000008D0600088D060008EF
:100040008D0600088D0600088D0600088D06000844
:100050008D0600088D06000851040008CD04000834
:100060008D0600088D0600088D0600088D06000824
:100070008D0600088D0600088D0600088D06000814
:100080008D0600088D0600088D060008000000009F
:100090000000000000000000000000008D060008C5
:1000A0008D0600088D0600088D0600088D060008E4
:1000B0008D0600088D0600088D0600088D060008D4
:1000C0008D0600088D0600088D0600088D060008C4
:1000D0008D0600088D0600088D060008000000004F
:1000E0008D0600088D0600088D060008000000003F
:1000F0000000000000000000000000008D06000865
:10010000000000008D0600088D0600088D0600081E
:1001100000000000000000000000000000000000DF
:100120008D0600088D0600088D0600088D06000863
:100130008D06000800000000000000000000000024
:100140000000000000000000000000008D06000814
:100150008D0600088D0600088D0600088D06000833
:100160008D0600088D060008000000000000000059
:10017000000000000000000000000000000000007F
:10018000000000008D0600080000000000000000D4
:040190008D060008D0
:1001940010B5054C237833B9044B13B10448AFF3BD
:1001A40000800123237010BD3400002000000000F3
:1001B400D806000808B5034B1BB103490348AFF345
:1001C400008008BD0000000038000020D8060008A8
:1001D40080B483B000AF0346FB71084B1B68FA7907
:1001E400012101FA02F21146044A0B43136000BFD5
:1001F4000C37BD465DF8047B704700BF30380240C1
:1002040090B482B000AF0446084611461A4623460D
:10021400FB710346BB710B467B7113463B71FA7944
:10022400564913469B0013449B000B441B681968F2
:10023400BB795B00032202FA03F3DB431C46FA7921
:100244004E4813469B0013449B0003441B6801EA79
:1002540004021A60FA79494913469B0013449B002F
:100264000B441B6819687A79BB795B0002FA03F3C3
:100274001C46FA79414813469B0013449B000344EF
:100284001B6841EA04021A60FA793C4913469B0050
:1002940013449B000B4404331B681968BB79012287
:1002A40002FA03F3DB431C46FA79344813469B00F5
:1002B40013449B00034404331B6801EA04021A60DC
:1002C400FA792E4913469B0013449B000B440433D4
:1002D4001B6819683B7903F00102BB7902FA03F346
:1002E4001C46FA79254813469B0013449B0003449B
:1002F40004331B6841EA04021A60FA791F49134661
:100304009B0013449B000B4408331B681968BB799A
:100314005B00032202FA03F3DB431C46FA79174815
:1003240013469B0013449B00034408331B6801EAF3
:1003340004021A60FA79114913469B0013449B0086
:100344000B4408331B6819683B795B1003F0030204
:10035400BB795B0002FA03F31C46FA79074813469B
:100364009B0013449B00034408331B6841EA0402C6
:100374001A6000BF0837BD4690BC704700000020DB
:1003840090B484B000AF0346FB710B46BB711346B7
:100394007B71FA792C4913469B0013449B000B4450
:1003A4001B681B68BA795200032101FA02F21A4051
:1003B400BB795B0022FA03F3012B3DD17B79002B3F
:1003C4001BD0FA79204913469B0013449B000B442D
:1003D40010331B681968BB79012202FA03F31C4627
:1003E400FA79194813469B0013449B0003441033C5
:1003F4001B6841EA04021A601BE0FA7912491346A9
:100404009B0013449B000B4410331B681968BB7991
:10041400012202FA03F3DB431C46FA790A48134625
:100424009B0013449B00034410331B6801EA04023D
:100434001A600023FB7301E00123FB73FB7B184666
:100444001037BD4690BC70470000002080B582B0D4
:1004540000AF1A4B1B78092B04D0184B1B780133BF
:10046400DBB200E00023154A13700023FB7117E090
:10047400124B1B781A46124B9B5C1946FB790122DE
:1004840002FA03F301EA0302FB7942FA03F3DAB254
:10049400FB7919460120FFF773FFFB790133FB71E8
:1004A400FB79062BE4D9074B1B68064A43F001038A
:1004B400136000BF0837BD4680BD00BF5000002058
:1004C40028000020143C014080B582B000AF1A4BD4
:1004D4001B78002B04D0184B1B78013BDBB200E0E7
:1004E4000923154A13700023FB7117E0124B1B7884
:1004F4001A46124B9B5C1946FB79012202FA03F35C
:1005040001EA0302FB7942FA03F3DAB2FB791946F2
:100514000120FFF735FFFB790133FB71FB79062BD3
:10052400E4D9074B1B68064A43F00203136000BF7B
:100534000837BD4680BD00BF5000002028000020C1
:10054400143C014080B582B000AF0020FFF740FEAC
:100554000120FFF73DFE0223002200210020FFF7C7
:100564004FFE0223002201210020FFF749FE002351
:10057400FB7108E0F979002301220120FFF740FE16
:10058400FB790133FB71FB79062BF3D91B4B1B68F9
:100594001A4A43F480431360194B1B68184A43F00A
:1005A40003031360174B1B68164A43F003031360DD
:1005B400154B1B68144A43F0C00313600023BB713E
:1005C40017E0124B1B781A46114B9B5C1946BB79FA
:1005D400012202FA03F301EA0302BB7942FA03F3AC
:1005E400DAB2BB7919460120FFF7CAFEBB790133A1
:1005F400BB71BB79062BE4D9FEE700BF4438024047
:10060400003C01400C3C014000E100E050000020AF
:100614002800002080B400AF064BD3F88830054A88
:1006240043F47003C2F8883000BFBD465DF8047B14
:10063400704700BF00ED00E0DFF834D00D480E49EC
:100644000E4A002302E0D458C4500433C4188C4228
:10065400F9D30B4A0B4C002301E013600432A2428D
:10066400FBD3FFF7D7FF00F011F8FFF76BFF7047DC
:10067400000001200000002034000020F8060008DB
:100684003400002054000020FEE7000070B50D4D3A
:100694000D4C641BA4100026A64209D10B4D0C4C32
:1006A40000F018F8641BA4100026A64205D170BD02
:1006B40055F8043B98470136EEE755F8043B984754
:1006C4000136F2E7F0060008F0060008F00600081C
:1006D400F4060008F8B500BFF8BC08BC9E46704795
:0C06E400F8B500BFF8BC08BC9E4670478B
:0406F000B901000844
:0406F4009501000864
:1006F80000000240040002400C00024010000240CA
:100708001400024000040240040402400C040240A9
:1007180010040240140402403F065B4F666D7D07DB
:040728007F6F0000DF
:040000050800063DAC
:00000001FF
