:020000040800F2
:1000000000000120A9050008F9050008F90500080D
:10001000F9050008F9050008F905000800000000CE
:10002000000000000000000000000000F9050008CA
:10003000F905000800000000F9050008F9050008AE
:10004000F9050008F9050008F9050008F905000898
:10005000F9050008F90500082D050008F905000854
:10006000F9050008F9050008F9050008F905000878
:10007000F9050008F9050008F9050008F905000868
:10008000F9050008F9050008F9050008000000005E
:10009000000000000000000000000000F90500085A
:1000A000F9050008F9050008F9050008F905000838
:1000B000F9050008F9050008F9050008F905000828
:1000C000F9050008F9050008F9050008F905000818
:1000D000F9050008F9050008F9050008000000000E
:1000E000F9050008F9050008F905000800000000FE
:1000F000000000000000000000000000F9050008FA
:1001000000000000F9050008F9050008F9050008DD
:1001100000000000000000000000000000000000DF
:10012000F9050008F9050008F9050008F9050008B7
:10013000F9050008000000000000000000000000B9
:10014000000000000000000000000000F9050008A9
:10015000F9050008F9050008F9050008F905000887
:10016000F9050008F9050008000000000000000083
:10017000000000000000000000000000000000007F
:1001800000000000F9050008000000000000000069
:04019000F905000865
:1001940010B5054C237833B9044B13B10448AFF3BD
:1001A40000800123237010BD2800002000000000FF
:1001B4004406000808B5034B1BB103490348AFF3D9
:1001C400008008BD000000002C0000204406000848
:1001D40080B483B000AF0346FB71084B1B68FA7907
:1001E400012101FA02F21146044A0B43136000BFD5
:1001F4000C37BD465DF8047B704700BF143C0140DA
:1002040080B483B000AF0346FB71084B1B68FA79D6
:10021400012101FA02F21146044A0B43136000BFA4
:100224000C37BD465DF8047B704700BF003C0140BD
:1002340080B483B000AF0346FB71084B1B68FA79A6
:10024400012101FA02F21146044A0B43136000BF74
:100254000C37BD465DF8047B704700BF0C3C014081
:1002640090B482B000AF0446084611461A462346AD
:10027400FB710346BB710B467B7113463B71FA79E4
:10028400564913469B0013449B000B441B68196892
:10029400BB795B00032202FA03F3DB431C46FA79C1
:1002A4004E4813469B0013449B0003441B6801EA19
:1002B40004021A60FA79494913469B0013449B00CF
:1002C4000B441B6819687A79BB795B0002FA03F363
:1002D4001C46FA79414813469B0013449B0003448F
:1002E4001B6841EA04021A60FA793C4913469B00F0
:1002F40013449B000B4404331B681968BB79012227
:1003040002FA03F3DB431C46FA79344813469B0094
:1003140013449B00034404331B6801EA04021A607B
:10032400FA792E4913469B0013449B000B44043373
:100334001B6819683B7903F00102BB7902FA03F3E5
:100344001C46FA79254813469B0013449B0003443A
:1003540004331B6841EA04021A60FA791F49134600
:100364009B0013449B000B4408331B681968BB793A
:100374005B00032202FA03F3DB431C46FA791748B5
:1003840013469B0013449B00034408331B6801EA93
:1003940004021A60FA79114913469B0013449B0026
:1003A4000B4408331B6819683B795B1003F00302A4
:1003B400BB795B0002FA03F31C46FA79074813463B
:1003C4009B0013449B00034408331B6841EA040266
:1003D4001A6000BF0837BD4690BC7047000000207B
:1003E40090B484B000AF03460A46FB711346BB7158
:1003F400FA791D4913469B0013449B000B441B6868
:100404001B68BA795200032101FA02F21A40BB793F
:100414005B0022FA03F3012B1DD1FA79124913462A
:100424009B0013449B000B4410331B681968BB7971
:10043400012202FA03F31C46FA790B4813469B0087
:1004440013449B00034410331B6881EA04021A60BE
:100454000023FB7301E00123FB73FB7B1846103779
:10046400BD4690BC704700BF0000002080B483B03C
:1004740000AF0346FB71084B1B68FA79012101FAAE
:1004840002F292011146044A0B43136000BF0C3779
:10049400BD465DF8047B704700E100E080B483B0A2
:1004A40000AF0346FB71084B1B68FA79012101FA7E
:1004B40002F21146044A0B43136000BF0C37BD46D9
:1004C4005DF8047B704700BF3038024080B400AF51
:1004D400054B1B68044A43F48043136000BFBD46C8
:1004E4005DF8047B704700BF4438024080B483B099
:1004F40000AF03460A46FB711346BB71094B1B68E8
:10050400FA79C2F10F01BA79920001FA02F2D243E8
:100514001146044A0B40136000BF0C37BD465DF81A
:10052400047B70470838014080B500AF01210020EA
:10053400FFF756FF0020FFF74BFE00BF80BD80B5DC
:1005440000AF0020FFF7AAFFFFF7C0FF022300223D
:1005540000210020FFF784FE002301220121002056
:10056400FFF77EFE00210020FFF7C0FF0020FFF709
:1005740047FE0020FFF75CFE0020FFF777FFFEE751
:1005840080B400AF064BD3F88830054A43F47003B7
:10059400C2F8883000BFBD465DF8047B704700BFD9
:1005A40000ED00E0DFF834D00D480E490E4A002378
:1005B40002E0D458C4500433C4188C42F9D30B4A13
:1005C4000B4C002301E013600432A242FBD3FFF77B
:1005D400D7FF00F011F8FFF7B2FF704700000120C9
:1005E40000000020280000206406000828000020E5
:1005F40044000020FEE7000070B50D4D0D4C641B57
:10060400A4100026A64209D10B4D0C4C00F018F89A
:10061400641BA4100026A64205D170BD55F8043B06
:1006240098470136EEE755F8043B98470136F2E760
:100634005C0600085C0600085C060008600600080A
:10064400F8B500BFF8BC08BC9E467047F8B500BFBB
:08065400F8BC08BC9E4670478B
:04065C00B9010008D8
:0406600095010008F8
:1006640000000240040002400C000240100002405E
:100674001400024000040240040402400C0402403E
:080684001004024014040240BE
:04000005080005A941
:00000001FF
