:020000040800F2
:10000000000001203D0400088D0400088D04000854
:100010008D0400088D0400088D0400080000000015
:100020000000000000000000000000008D04000837
:100030008D040008000000008D0400088D040008F5
:100040008D0400088D0400088D0400088D0400084C
:100050008D0400088D040008850300088D04000845
:100060008D0400088D0400088D0400088D0400082C
:100070008D0400088D0400088D0400088D0400081C
:100080008D0400088D0400088D04000800000000A5
:100090000000000000000000000000008D040008C7
:1000A0008D0400088D0400088D0400088D040008EC
:1000B0008D0400088D0400088D0400088D040008DC
:1000C0008D0400088D0400088D0400088D040008CC
:1000D0008D0400088D0400088D0400080000000055
:1000E0008D0400088D0400088D0400080000000045
:1000F0000000000000000000000000008D04000867
:10010000000000008D0400088D0400088D04000824
:1001100000000000000000000000000000000000DF
:100120008D0400088D0400088D0400088D0400086B
:100130008D04000800000000000000000000000026
:100140000000000000000000000000008D04000816
:100150008D0400088D0400088D0400088D0400083B
:100160008D0400088D04000800000000000000005D
:10017000000000000000000000000000000000007F
:10018000000000008D0400080000000000000000D6
:040190008D040008D2
:1001940010B5054C237833B9044B13B10448AFF3BD
:1001A40000800123237010BD2800002000000000FF
:1001B400D804000808B5034B1BB103490348AFF347
:1001C400008008BD000000002C000020D8040008B6
:1001D40080B483B000AF0346FB71084B1B68FA7907
:1001E400012101FA02F21146044A0B43136000BFD5
:1001F4000C37BD465DF8047B704700BF30380240C1
:1002040090B482B000AF0446084611461A4623460D
:10021400FB710346BB710B467B7113463B71FA7944
:10022400564913469B0013449B000B441B681968F2
:10023400BB795B00032202FA03F3DB431C46FA7921
:100244004E4813469B0013449B0003441B6801EA79
:1002540004021A60FA79494913469B0013449B002F
:100264000B441B6819687A79BB795B0002FA03F3C3
:100274001C46FA79414813469B0013449B000344EF
:100284001B6841EA04021A60FA793C4913469B0050
:1002940013449B000B4404331B681968BB79012287
:1002A40002FA03F3DB431C46FA79344813469B00F5
:1002B40013449B00034404331B6801EA04021A60DC
:1002C400FA792E4913469B0013449B000B440433D4
:1002D4001B6819683B7903F00102BB7902FA03F346
:1002E4001C46FA79254813469B0013449B0003449B
:1002F40004331B6841EA04021A60FA791F49134661
:100304009B0013449B000B4408331B681968BB799A
:100314005B00032202FA03F3DB431C46FA79174815
:1003240013469B0013449B00034408331B6801EAF3
:1003340004021A60FA79114913469B0013449B0086
:100344000B4408331B6819683B795B1003F0030204
:10035400BB795B0002FA03F31C46FA79074813469B
:100364009B0013449B00034408331B6841EA0402C6
:100374001A6000BF0837BD4690BC704700000020DB
:1003840080B400AF084B1B68074A83F00203136074
:10039400064B1B68054A43F00103136000BFBD46CA
:1003A4005DF8047B704700BF14000240143C014018
:1003B40080B500AF0020FFF70BFF022300220021CD
:1003C4000020FFF71DFF0023012201210020FFF779
:1003D40017FF0C4B1B680B4A43F4804313600A4B12
:1003E4001B68094A43F001031360084B1B68074A62
:1003F40043F001031360064B1B68054A43F04003B6
:100404001360FEE744380240003C01400C3C0140CC
:1004140000E100E080B400AF064BD3F88830054A11
:1004240043F47003C2F8883000BFBD465DF8047B16
:10043400704700BF00ED00E0DFF834D00D480E49EE
:100444000E4A002302E0D458C4500433C4188C422A
:10045400F9D30B4A0B4C002301E013600432A2428F
:10046400FBD3FFF7D7FF00F011F8FFF7A1FF7047A8
:10047400000001200000002028000020F8040008EB
:100484002800002044000020FEE7000070B50D4D58
:100494000D4C641BA4100026A64209D10B4D0C4C34
:1004A40000F018F8641BA4100026A64205D170BD04
:1004B40055F8043B98470136EEE755F8043B984756
:1004C4000136F2E7F0040008F0040008F004000824
:1004D400F4040008F8B500BFF8BC08BC9E46704799
:0C04E400F8B500BFF8BC08BC9E4670478D
:0404F000B901000846
:0404F4009501000866
:1004F80000000240040002400C00024010000240CC
:100508001400024000040240040402400C040240AB
:0805180010040240140402402B
:040000050800043DAE
:00000001FF
